{
  "contractName": "Seafood",
  "abi": [
    {
      "anonymous": false,
      "inputs": [
        {
          "indexed": false,
          "internalType": "string",
          "name": "fishId",
          "type": "string"
        },
        {
          "indexed": false,
          "internalType": "string",
          "name": "location",
          "type": "string"
        },
        {
          "indexed": false,
          "internalType": "string",
          "name": "fishermanName",
          "type": "string"
        }
      ],
      "name": "fishRegistered",
      "type": "event"
    },
    {
      "anonymous": false,
      "inputs": [
        {
          "indexed": false,
          "internalType": "string",
          "name": "fishIds",
          "type": "string"
        },
        {
          "indexed": false,
          "internalType": "string",
          "name": "packageId",
          "type": "string"
        },
        {
          "indexed": false,
          "internalType": "string",
          "name": "processingFacilityName",
          "type": "string"
        }
      ],
      "name": "packageRegistered",
      "type": "event"
    },
    {
      "anonymous": false,
      "inputs": [
        {
          "indexed": false,
          "internalType": "string",
          "name": "packageId",
          "type": "string"
        },
        {
          "indexed": false,
          "internalType": "string",
          "name": "retailerName",
          "type": "string"
        }
      ],
      "name": "packageRegisteredInInventory",
      "type": "event"
    },
    {
      "anonymous": false,
      "inputs": [
        {
          "indexed": false,
          "internalType": "string",
          "name": "packageId",
          "type": "string"
        }
      ],
      "name": "packageSold",
      "type": "event"
    },
    {
      "anonymous": false,
      "inputs": [
        {
          "indexed": false,
          "internalType": "string",
          "name": "packageId",
          "type": "string"
        },
        {
          "indexed": false,
          "internalType": "string",
          "name": "toLocation",
          "type": "string"
        },
        {
          "indexed": false,
          "internalType": "string",
          "name": "distributorName",
          "type": "string"
        }
      ],
      "name": "packageTransported",
      "type": "event"
    },
    {
      "anonymous": false,
      "inputs": [
        {
          "indexed": false,
          "internalType": "string",
          "name": "fishIds",
          "type": "string"
        },
        {
          "indexed": false,
          "internalType": "string",
          "name": "toLocation",
          "type": "string"
        },
        {
          "indexed": false,
          "internalType": "string",
          "name": "shipmentCompanyName",
          "type": "string"
        }
      ],
      "name": "shipmentRegistered",
      "type": "event"
    },
    {
      "constant": false,
      "inputs": [
        {
          "internalType": "string",
          "name": "fishId",
          "type": "string"
        },
        {
          "internalType": "string",
          "name": "location",
          "type": "string"
        },
        {
          "internalType": "string",
          "name": "fishermanName",
          "type": "string"
        }
      ],
      "name": "registerFish",
      "outputs": [],
      "payable": false,
      "stateMutability": "nonpayable",
      "type": "function"
    },
    {
      "constant": false,
      "inputs": [
        {
          "internalType": "string",
          "name": "fishIds",
          "type": "string"
        },
        {
          "internalType": "string",
          "name": "toLocation",
          "type": "string"
        },
        {
          "internalType": "string",
          "name": "shipmentCompanyName",
          "type": "string"
        }
      ],
      "name": "registerShipment",
      "outputs": [],
      "payable": false,
      "stateMutability": "nonpayable",
      "type": "function"
    },
    {
      "constant": false,
      "inputs": [
        {
          "internalType": "string",
          "name": "fishIds",
          "type": "string"
        },
        {
          "internalType": "string",
          "name": "packageId",
          "type": "string"
        },
        {
          "internalType": "string",
          "name": "processingFacilityName",
          "type": "string"
        }
      ],
      "name": "registerPackage",
      "outputs": [],
      "payable": false,
      "stateMutability": "nonpayable",
      "type": "function"
    },
    {
      "constant": false,
      "inputs": [
        {
          "internalType": "string",
          "name": "packageId",
          "type": "string"
        },
        {
          "internalType": "string",
          "name": "toLocation",
          "type": "string"
        },
        {
          "internalType": "string",
          "name": "distributorName",
          "type": "string"
        }
      ],
      "name": "registerTransportation",
      "outputs": [],
      "payable": false,
      "stateMutability": "nonpayable",
      "type": "function"
    },
    {
      "constant": false,
      "inputs": [
        {
          "internalType": "string",
          "name": "packageId",
          "type": "string"
        },
        {
          "internalType": "string",
          "name": "retailerName",
          "type": "string"
        }
      ],
      "name": "registerInInventory",
      "outputs": [],
      "payable": false,
      "stateMutability": "nonpayable",
      "type": "function"
    },
    {
      "constant": false,
      "inputs": [
        {
          "internalType": "string",
          "name": "packageId",
          "type": "string"
        }
      ],
      "name": "registerSelling",
      "outputs": [],
      "payable": false,
      "stateMutability": "nonpayable",
      "type": "function"
    }
  ],
  "bytecode": "0x608060405234801561001057600080fd5b506116b3806100206000396000f3fe608060405234801561001057600080fd5b50600436106100625760003560e01c80630e63cda3146100675780634f7bb3a41461025057806363390c72146103a25780638eef8a711461058b57806396cd54ec14610774578063c81b36041461082f575b600080fd5b61024e6004803603606081101561007d57600080fd5b810190808035906020019064010000000081111561009a57600080fd5b8201836020820111156100ac57600080fd5b803590602001918460018302840111640100000000831117156100ce57600080fd5b91908080601f016020809104026020016040519081016040528093929190818152602001838380828437600081840152601f19601f8201169050808301925050505050505091929192908035906020019064010000000081111561013157600080fd5b82018360208201111561014357600080fd5b8035906020019184600183028401116401000000008311171561016557600080fd5b91908080601f016020809104026020016040519081016040528093929190818152602001838380828437600081840152601f19601f820116905080830192505050505050509192919290803590602001906401000000008111156101c857600080fd5b8201836020820111156101da57600080fd5b803590602001918460018302840111640100000000831117156101fc57600080fd5b91908080601f016020809104026020016040519081016040528093929190818152602001838380828437600081840152601f19601f820116905080830192505050505050509192919290505050610a18565b005b6103a06004803603604081101561026657600080fd5b810190808035906020019064010000000081111561028357600080fd5b82018360208201111561029557600080fd5b803590602001918460018302840111640100000000831117156102b757600080fd5b91908080601f016020809104026020016040519081016040528093929190818152602001838380828437600081840152601f19601f8201169050808301925050505050505091929192908035906020019064010000000081111561031a57600080fd5b82018360208201111561032c57600080fd5b8035906020019184600183028401116401000000008311171561034e57600080fd5b91908080601f016020809104026020016040519081016040528093929190818152602001838380828437600081840152601f19601f820116905080830192505050505050509192919290505050610c4e565b005b610589600480360360608110156103b857600080fd5b81019080803590602001906401000000008111156103d557600080fd5b8201836020820111156103e757600080fd5b8035906020019184600183028401116401000000008311171561040957600080fd5b91908080601f016020809104026020016040519081016040528093929190818152602001838380828437600081840152601f19601f8201169050808301925050505050505091929192908035906020019064010000000081111561046c57600080fd5b82018360208201111561047e57600080fd5b803590602001918460018302840111640100000000831117156104a057600080fd5b91908080601f016020809104026020016040519081016040528093929190818152602001838380828437600081840152601f19601f8201169050808301925050505050505091929192908035906020019064010000000081111561050357600080fd5b82018360208201111561051557600080fd5b8035906020019184600183028401116401000000008311171561053757600080fd5b91908080601f016020809104026020016040519081016040528093929190818152602001838380828437600081840152601f19601f820116905080830192505050505050509192919290505050610dd9565b005b610772600480360360608110156105a157600080fd5b81019080803590602001906401000000008111156105be57600080fd5b8201836020820111156105d057600080fd5b803590602001918460018302840111640100000000831117156105f257600080fd5b91908080601f016020809104026020016040519081016040528093929190818152602001838380828437600081840152601f19601f8201169050808301925050505050505091929192908035906020019064010000000081111561065557600080fd5b82018360208201111561066757600080fd5b8035906020019184600183028401116401000000008311171561068957600080fd5b91908080601f016020809104026020016040519081016040528093929190818152602001838380828437600081840152601f19601f820116905080830192505050505050509192919290803590602001906401000000008111156106ec57600080fd5b8201836020820111156106fe57600080fd5b8035906020019184600183028401116401000000008311171561072057600080fd5b91908080601f016020809104026020016040519081016040528093929190818152602001838380828437600081840152601f19601f82011690508083019250505050505050919291929050505061100f565b005b61082d6004803603602081101561078a57600080fd5b81019080803590602001906401000000008111156107a757600080fd5b8201836020820111156107b957600080fd5b803590602001918460018302840111640100000000831117156107db57600080fd5b91908080601f016020809104026020016040519081016040528093929190818152602001838380828437600081840152601f19601f820116905080830192505050505050509192919290505050611245565b005b610a166004803603606081101561084557600080fd5b810190808035906020019064010000000081111561086257600080fd5b82018360208201111561087457600080fd5b8035906020019184600183028401116401000000008311171561089657600080fd5b91908080601f016020809104026020016040519081016040528093929190818152602001838380828437600081840152601f19601f820116905080830192505050505050509192919290803590602001906401000000008111156108f957600080fd5b82018360208201111561090b57600080fd5b8035906020019184600183028401116401000000008311171561092d57600080fd5b91908080601f016020809104026020016040519081016040528093929190818152602001838380828437600081840152601f19601f8201169050808301925050505050505091929192908035906020019064010000000081111561099057600080fd5b8201836020820111156109a257600080fd5b803590602001918460018302840111640100000000831117156109c457600080fd5b91908080601f016020809104026020016040519081016040528093929190818152602001838380828437600081840152601f19601f820116905080830192505050505050509192919290505050611323565b005b6040518060400160405280838152602001828152506001846040518082805190602001908083835b60208310610a635780518252602082019150602081019050602083039250610a40565b6001836020036101000a03801982511681845116808217855250505050505090500191505090815260200160405180910390206000820151816000019080519060200190610ab2929190611559565b506020820151816001019080519060200190610acf929190611559565b509050507f69d24b24e3eda460ffdc99520d7b9e644129abc5de46f2b182177702a696507183838360405180806020018060200180602001848103845287818151815260200191508051906020019080838360005b83811015610b3f578082015181840152602081019050610b24565b50505050905090810190601f168015610b6c5780820380516001836020036101000a031916815260200191505b50848103835286818151815260200191508051906020019080838360005b83811015610ba5578082015181840152602081019050610b8a565b50505050905090810190601f168015610bd25780820380516001836020036101000a031916815260200191505b50848103825285818151815260200191508051906020019080838360005b83811015610c0b578082015181840152602081019050610bf0565b50505050905090810190601f168015610c385780820380516001836020036101000a031916815260200191505b50965050505050505060405180910390a1505050565b806004836040518082805190602001908083835b60208310610c855780518252602082019150602081019050602083039250610c62565b6001836020036101000a03801982511681845116808217855250505050505090500191505090815260200160405180910390209080519060200190610ccb9291906115d9565b507ffe2f6ec52c0b3019b4e3746f7911f68843643734624690464a7854c1c77067028282604051808060200180602001838103835285818151815260200191508051906020019080838360005b83811015610d33578082015181840152602081019050610d18565b50505050905090810190601f168015610d605780820380516001836020036101000a031916815260200191505b50838103825284818151815260200191508051906020019080838360005b83811015610d99578082015181840152602081019050610d7e565b50505050905090810190601f168015610dc65780820380516001836020036101000a031916815260200191505b5094505050505060405180910390a15050565b6040518060400160405280838152602001828152506003846040518082805190602001908083835b60208310610e245780518252602082019150602081019050602083039250610e01565b6001836020036101000a03801982511681845116808217855250505050505090500191505090815260200160405180910390206000820151816000019080519060200190610e73929190611559565b506020820151816001019080519060200190610e90929190611559565b509050507f95925db6964829b383fcd334823292de6f59a9bdaeebc89b30a150683004f71783838360405180806020018060200180602001848103845287818151815260200191508051906020019080838360005b83811015610f00578082015181840152602081019050610ee5565b50505050905090810190601f168015610f2d5780820380516001836020036101000a031916815260200191505b50848103835286818151815260200191508051906020019080838360005b83811015610f66578082015181840152602081019050610f4b565b50505050905090810190601f168015610f935780820380516001836020036101000a031916815260200191505b50848103825285818151815260200191508051906020019080838360005b83811015610fcc578082015181840152602081019050610fb1565b50505050905090810190601f168015610ff95780820380516001836020036101000a031916815260200191505b50965050505050505060405180910390a1505050565b6040518060400160405280848152602001828152506002836040518082805190602001908083835b6020831061105a5780518252602082019150602081019050602083039250611037565b6001836020036101000a038019825116818451168082178552505050505050905001915050908152602001604051809103902060008201518160000190805190602001906110a9929190611559565b5060208201518160010190805190602001906110c6929190611559565b509050507feec3d41f61bf26324f3f4fb37e9df3ff5a7babbd6d6ac46b90b6405e46ed9ff383838360405180806020018060200180602001848103845287818151815260200191508051906020019080838360005b8381101561113657808201518184015260208101905061111b565b50505050905090810190601f1680156111635780820380516001836020036101000a031916815260200191505b50848103835286818151815260200191508051906020019080838360005b8381101561119c578082015181840152602081019050611181565b50505050905090810190601f1680156111c95780820380516001836020036101000a031916815260200191505b50848103825285818151815260200191508051906020019080838360005b838110156112025780820151818401526020810190506111e7565b50505050905090810190601f16801561122f5780820380516001836020036101000a031916815260200191505b50965050505050505060405180910390a1505050565b60058190806001815401808255809150509060018203906000526020600020016000909192909190915090805190602001906112829291906115d9565b50507f6f5d6de5ca4332042fe4bdd5e21965185f74a4e3bae6fc6536129d3c171e6bea816040518080602001828103825283818151815260200191508051906020019080838360005b838110156112e65780820151818401526020810190506112cb565b50505050905090810190601f1680156113135780820380516001836020036101000a031916815260200191505b509250505060405180910390a150565b6040518060400160405280838152602001828152506000846040518082805190602001908083835b6020831061136e578051825260208201915060208101905060208303925061134b565b6001836020036101000a038019825116818451168082178552505050505050905001915050908152602001604051809103902060008201518160000190805190602001906113bd929190611559565b5060208201518160010190805190602001906113da929190611559565b509050507f15fc5aa78c20e2294d72de63cace56ab701117010145c1e3c2ed9201be54dbf583838360405180806020018060200180602001848103845287818151815260200191508051906020019080838360005b8381101561144a57808201518184015260208101905061142f565b50505050905090810190601f1680156114775780820380516001836020036101000a031916815260200191505b50848103835286818151815260200191508051906020019080838360005b838110156114b0578082015181840152602081019050611495565b50505050905090810190601f1680156114dd5780820380516001836020036101000a031916815260200191505b50848103825285818151815260200191508051906020019080838360005b838110156115165780820151818401526020810190506114fb565b50505050905090810190601f1680156115435780820380516001836020036101000a031916815260200191505b50965050505050505060405180910390a1505050565b828054600181600116156101000203166002900490600052602060002090601f016020900481019282601f1061159a57805160ff19168380011785556115c8565b828001600101855582156115c8579182015b828111156115c75782518255916020019190600101906115ac565b5b5090506115d59190611659565b5090565b828054600181600116156101000203166002900490600052602060002090601f016020900481019282601f1061161a57805160ff1916838001178555611648565b82800160010185558215611648579182015b8281111561164757825182559160200191906001019061162c565b5b5090506116559190611659565b5090565b61167b91905b8082111561167757600081600090555060010161165f565b5090565b9056fea265627a7a7231582066c27508363eb76404b96e51c732f6f60e6acf6b0a861f3eb5e241d2d51c439164736f6c634300050c0032",
  "source": "pragma solidity >=0.4.21 <0.6.0;\r\n\r\n/**\r\n * @title Seafood supplychain smart contract\r\n * @author Andrea Lamparelli\r\n * @notice This contract allows all seafood supply chain's involved actors to log their operations in a persistent way\r\n **/\r\ncontract Seafood {\r\n    /************** Custom Structs **************/\r\n    struct Fish {\r\n        string location;\r\n        string fishermanName;\r\n    }\r\n    \r\n    struct Shipment {\r\n        string toLocation;\r\n        string shipmentCompanyName;\r\n    }\r\n    \r\n    struct Package {\r\n        string fishIds;\r\n        string processingFacilityName;\r\n    }\r\n    \r\n    struct Transport {\r\n        string toLocation;\r\n        string distributorName;\r\n    }\r\n    \r\n    /************* State Variables **************/\r\n    \r\n    /* fishID => (location, fishermanName) */\r\n    mapping (string => Fish) fishes;\r\n    \r\n    /* fishIds => (toLocation, shipmentCompanyName) */\r\n    mapping (string => Shipment) shipments;\r\n    \r\n    /* packageId => (fishIds, processingFacilityName) */\r\n    mapping (string => Package) packages;\r\n    \r\n    /* packageId => (toLocation, distributorName) */\r\n    mapping (string => Transport) transports;\r\n    \r\n    /* packageId => retailerName */\r\n    mapping (string => string) inventory;\r\n    \r\n    /* list of packageId sold by all retailer */\r\n    string [] sales;\r\n    \r\n    /****************** Events  ********************/\r\n    \r\n    /**\r\n     * @notice Notify that a new fish has been registered\r\n     **/\r\n    event fishRegistered(string fishId, string location, string fishermanName);\r\n    \r\n    /**\r\n     * @notice Notify that a new shipment has been registered\r\n     **/\r\n    event shipmentRegistered(string fishIds, string toLocation, string shipmentCompanyName);\r\n    \r\n    /**\r\n     * @notice Notify that a new package has been registered\r\n     **/\r\n    event packageRegistered(string fishIds, string packageId, string processingFacilityName);\r\n    \r\n    /**\r\n     * @notice Notify that a new package has been transported\r\n     **/\r\n    event packageTransported(string packageId, string toLocation, string distributorName);\r\n    \r\n    /**\r\n     * @notice Notify that a new package has been registered in the inventory\r\n     **/\r\n    event packageRegisteredInInventory(string packageId, string retailerName);\r\n    \r\n    /**\r\n     * @notice Notify that a new package has been sold\r\n     **/\r\n    event packageSold(string packageId);\r\n    \r\n    \r\n    /*********** Registration Function  ************/\r\n    \r\n    /**\r\n     * @notice Register a new fish inside the supply chain ecosystem\r\n     * @param fishId is the fish unique identifier\r\n     * @param location is the place from which the fish comes from\r\n     * @param fishermanName is actor who caught the fish\r\n     **/\r\n    function registerFish(string memory fishId, string memory location, string memory fishermanName) public {\r\n        fishes[fishId] = Fish(location, fishermanName);\r\n        emit fishRegistered(fishId, location, fishermanName);\r\n    }\r\n    \r\n    /**\r\n     * @notice Register a new fishes' batch shipment\r\n     * @param fishIds is a comma separated list of fishId\r\n     * @param toLocation is the place where the batch has to be shipped\r\n     * @param shipmentCompanyName name of the company in charge to ship the batch\r\n     **/\r\n    function registerShipment(string memory fishIds, string memory toLocation, string memory shipmentCompanyName) public{\r\n        shipments[fishIds] = Shipment(toLocation, shipmentCompanyName);\r\n        emit shipmentRegistered(fishIds, toLocation, shipmentCompanyName);\r\n    }\r\n    \r\n    /**\r\n     * @notice Register a new fishes' package\r\n     * @param fishIds is a comma separated list of fishId\r\n     * @param packageId is the unique package identifier\r\n     * @param processingFacilityName name of the facility that has processed the package\r\n     **/\r\n    function registerPackage(string memory fishIds, string memory packageId, string memory processingFacilityName) public{\r\n        packages[packageId] = Package(fishIds, processingFacilityName);\r\n        emit packageRegistered(fishIds, packageId, processingFacilityName);\r\n    }\r\n    \r\n    /**\r\n     * @notice Register a new transportation\r\n     * @param packageId is the identifier of the transported package\r\n     * @param toLocation is the place where tha package was transported to\r\n     * @param distributorName is the name of the company that transported the package\r\n     **/\r\n    function registerTransportation(string memory packageId, string memory toLocation, string memory distributorName) public{\r\n        transports[packageId] = Transport(toLocation, distributorName);\r\n        emit packageTransported(packageId, toLocation, distributorName);\r\n    }\r\n    \r\n    /**\r\n     * @notice Register a new package in the inventory\r\n     * @param packageId is the unique identifier of the package\r\n     * @param retailerName name of the retailer who will sell the package\r\n     **/\r\n    function registerInInventory(string memory packageId, string memory retailerName) public{\r\n        inventory[packageId] = retailerName;\r\n        emit packageRegisteredInInventory(packageId, retailerName);\r\n    }\r\n    \r\n    /**\r\n     * @notice Register that a package was sold\r\n     * @param packageId is the identifier of the sold package\r\n     **/\r\n    function registerSelling(string memory packageId) public{\r\n        sales.push(packageId);\r\n        emit packageSold(packageId);\r\n    }\r\n}",
  "sourcePath": "C:/Users/falazigb/Documents/GitHub/SCIP-CaseStudy-2/SmartContracts/Ethereum/Seafood/contracts/Seafood.sol",
  "compiler": {
    "name": "solc",
    "version": "0.5.12+commit.7709ece9.Emscripten.clang"
  },
  "schemaVersion": "3.0.19",
  "updatedAt": "2020-01-09T09:21:19.486Z",
  "networkType": "ethereum",
  "devdoc": {
    "author": "Andrea Lamparelli",
    "methods": {
      "registerFish(string,string,string)": {
        "params": {
          "fishId": "is the fish unique identifier",
          "fishermanName": "is actor who caught the fish*",
          "location": "is the place from which the fish comes from"
        }
      },
      "registerInInventory(string,string)": {
        "params": {
          "packageId": "is the unique identifier of the package",
          "retailerName": "name of the retailer who will sell the package*"
        }
      },
      "registerPackage(string,string,string)": {
        "params": {
          "fishIds": "is a comma separated list of fishId",
          "packageId": "is the unique package identifier",
          "processingFacilityName": "name of the facility that has processed the package*"
        }
      },
      "registerSelling(string)": {
        "params": {
          "packageId": "is the identifier of the sold package*"
        }
      },
      "registerShipment(string,string,string)": {
        "params": {
          "fishIds": "is a comma separated list of fishId",
          "shipmentCompanyName": "name of the company in charge to ship the batch*",
          "toLocation": "is the place where the batch has to be shipped"
        }
      },
      "registerTransportation(string,string,string)": {
        "params": {
          "distributorName": "is the name of the company that transported the package*",
          "packageId": "is the identifier of the transported package",
          "toLocation": "is the place where tha package was transported to"
        }
      }
    },
    "title": "Seafood supplychain smart contract"
  },
  "userdoc": {
    "methods": {
      "registerFish(string,string,string)": {
        "notice": "Register a new fish inside the supply chain ecosystem"
      },
      "registerInInventory(string,string)": {
        "notice": "Register a new package in the inventory"
      },
      "registerPackage(string,string,string)": {
        "notice": "Register a new fishes' package"
      },
      "registerSelling(string)": {
        "notice": "Register that a package was sold"
      },
      "registerShipment(string,string,string)": {
        "notice": "Register a new fishes' batch shipment"
      },
      "registerTransportation(string,string,string)": {
        "notice": "Register a new transportation"
      }
    },
    "notice": "This contract allows all seafood supply chain's involved actors to log their operations in a persistent way*"
  }
}